{
  "contractName": "ImageRegister",
  "abi": [
    {
      "anonymous": false,
      "inputs": [
        {
          "indexed": false,
          "name": "description",
          "type": "string"
        },
        {
          "indexed": false,
          "name": "title",
          "type": "string"
        },
        {
          "indexed": false,
          "name": "memeHash",
          "type": "string"
        },
        {
          "indexed": true,
          "name": "owner",
          "type": "address"
        }
      ],
      "name": "LogImageUploaded",
      "type": "event",
      "signature": "0x59949388eedf750d790a4e69decc53b653c6b045d3a8267a699612256b2d20b4"
    },
    {
      "constant": false,
      "inputs": [
        {
          "name": "description",
          "type": "string"
        },
        {
          "name": "title",
          "type": "string"
        },
        {
          "name": "memeHash",
          "type": "string"
        }
      ],
      "name": "uploadImage",
      "outputs": [
        {
          "name": "_success",
          "type": "bool"
        }
      ],
      "payable": false,
      "stateMutability": "nonpayable",
      "type": "function",
      "signature": "0xcec23a47"
    },
    {
      "constant": true,
      "inputs": [
        {
          "name": "owner",
          "type": "address"
        }
      ],
      "name": "getImageCount",
      "outputs": [
        {
          "name": "",
          "type": "uint256"
        }
      ],
      "payable": false,
      "stateMutability": "view",
      "type": "function",
      "signature": "0x361fad3b"
    },
    {
      "constant": true,
      "inputs": [
        {
          "name": "owner",
          "type": "address"
        },
        {
          "name": "index",
          "type": "uint256"
        }
      ],
      "name": "getImage",
      "outputs": [
        {
          "name": "description",
          "type": "string"
        },
        {
          "name": "title",
          "type": "string"
        },
        {
          "name": "memeHash",
          "type": "string"
        }
      ],
      "payable": false,
      "stateMutability": "view",
      "type": "function",
      "signature": "0x33b0560c"
    }
  ],
  "bytecode": "0x608060405234801561001057600080fd5b50610b4c806100206000396000f3fe608060405234801561001057600080fd5b506004361061005e576000357c01000000000000000000000000000000000000000000000000000000009004806333b0560c14610063578063361fad3b14610202578063cec23a471461025a575b600080fd5b6100af6004803603604081101561007957600080fd5b81019080803573ffffffffffffffffffffffffffffffffffffffff1690602001909291908035906020019092919050505061045b565b60405180806020018060200180602001848103845287818151815260200191508051906020019080838360005b838110156100f75780820151818401526020810190506100dc565b50505050905090810190601f1680156101245780820380516001836020036101000a031916815260200191505b50848103835286818151815260200191508051906020019080838360005b8381101561015d578082015181840152602081019050610142565b50505050905090810190601f16801561018a5780820380516001836020036101000a031916815260200191505b50848103825285818151815260200191508051906020019080838360005b838110156101c35780820151818401526020810190506101a8565b50505050905090810190601f1680156101f05780820380516001836020036101000a031916815260200191505b50965050505050505060405180910390f35b6102446004803603602081101561021857600080fd5b81019080803573ffffffffffffffffffffffffffffffffffffffff1690602001909291905050506106e5565b6040518082815260200191505060405180910390f35b6104416004803603606081101561027057600080fd5b810190808035906020019064010000000081111561028d57600080fd5b82018360208201111561029f57600080fd5b803590602001918460018302840111640100000000831117156102c157600080fd5b91908080601f016020809104026020016040519081016040528093929190818152602001838380828437600081840152601f19601f8201169050808301925050505050505091929192908035906020019064010000000081111561032457600080fd5b82018360208201111561033657600080fd5b8035906020019184600183028401116401000000008311171561035857600080fd5b91908080601f016020809104026020016040519081016040528093929190818152602001838380828437600081840152601f19601f820116905080830192505050505050509192919290803590602001906401000000008111156103bb57600080fd5b8201836020820111156103cd57600080fd5b803590602001918460018302840111640100000000831117156103ef57600080fd5b91908080601f016020809104026020016040519081016040528093929190818152602001838380828437600081840152601f19601f820116905080830192505050505050509192919290505050610730565b604051808215151515815260200191505060405180910390f35b6060806060610468610a26565b6000808773ffffffffffffffffffffffffffffffffffffffff1673ffffffffffffffffffffffffffffffffffffffff168152602001908152602001600020858154811015156104b357fe5b906000526020600020906004020160806040519081016040529081600082018054600181600116156101000203166002900480601f0160208091040260200160405190810160405280929190818152602001828054600181600116156101000203166002900480156105665780601f1061053b57610100808354040283529160200191610566565b820191906000526020600020905b81548152906001019060200180831161054957829003601f168201915b50505050508152602001600182018054600181600116156101000203166002900480601f0160208091040260200160405190810160405280929190818152602001828054600181600116156101000203166002900480156106085780601f106105dd57610100808354040283529160200191610608565b820191906000526020600020905b8154815290600101906020018083116105eb57829003601f168201915b50505050508152602001600282018054600181600116156101000203166002900480601f0160208091040260200160405190810160405280929190818152602001828054600181600116156101000203166002900480156106aa5780601f1061067f576101008083540402835291602001916106aa565b820191906000526020600020905b81548152906001019060200180831161068d57829003601f168201915b505050505081526020016003820154815250509050806000015181602001518260400151829250819150809050935093509350509250925092565b60008060008373ffffffffffffffffffffffffffffffffffffffff1673ffffffffffffffffffffffffffffffffffffffff168152602001908152602001600020805490509050919050565b600080845111151561078d576040517f08c379a000000000000000000000000000000000000000000000000000000000815260040180806020018281038252602c815260200180610af5602c913960400191505060405180910390fd5b600042905061079a610a26565b6080604051908101604052808781526020018681526020018581526020018381525090506000803373ffffffffffffffffffffffffffffffffffffffff1673ffffffffffffffffffffffffffffffffffffffff16815260200190815260200160002081908060018154018082558091505090600182039060005260206000209060040201600090919290919091506000820151816000019080519060200190610844929190610a4f565b506020820151816001019080519060200190610861929190610a4f565b50604082015181600201908051906020019061087e929190610a4f565b50606082015181600301555050503373ffffffffffffffffffffffffffffffffffffffff167f59949388eedf750d790a4e69decc53b653c6b045d3a8267a699612256b2d20b487878760405180806020018060200180602001848103845287818151815260200191508051906020019080838360005b8381101561090f5780820151818401526020810190506108f4565b50505050905090810190601f16801561093c5780820380516001836020036101000a031916815260200191505b50848103835286818151815260200191508051906020019080838360005b8381101561097557808201518184015260208101905061095a565b50505050905090810190601f1680156109a25780820380516001836020036101000a031916815260200191505b50848103825285818151815260200191508051906020019080838360005b838110156109db5780820151818401526020810190506109c0565b50505050905090810190601f168015610a085780820380516001836020036101000a031916815260200191505b50965050505050505060405180910390a26001925050509392505050565b608060405190810160405280606081526020016060815260200160608152602001600081525090565b828054600181600116156101000203166002900490600052602060002090601f016020900481019282601f10610a9057805160ff1916838001178555610abe565b82800160010185558215610abe579182015b82811115610abd578251825591602001919060010190610aa2565b5b509050610acb9190610acf565b5090565b610af191905b80821115610aed576000816000905550600101610ad5565b5090565b9056fe6465736372697074696f6e206d757374206265206c657373207468616e203235362063686172616374657273a165627a7a72305820645576fe7e652bad735a9fe3dd246441260aadb8cec340d787468f1dbdd0deb00029",
  "source": "pragma solidity ^0.5.0;\r\n\r\ncontract ImageRegister {\r\n    mapping(address => Image[]) ownerToImages;\r\n\r\n    struct Image {\r\n        string description;\r\n        string title;\r\n        string memeHash;\r\n        uint256 uploadedAt;\r\n    }\r\n\r\n    event LogImageUploaded(string description, string title, string memeHash, address indexed owner);\r\n\r\n    function uploadImage(string memory description, string memory title, string memory memeHash) \r\n        public returns (bool _success) {\r\n            require(bytes(description).length > 0, 'description must be less than 256 characters');\r\n            uint256 uploadedOn = now;\r\n\r\n            Image memory image = Image(description, title, memeHash, uploadedOn);\r\n            ownerToImages[msg.sender].push(image);\r\n            emit LogImageUploaded(description, title, memeHash, msg.sender);\r\n            \r\n            _success = true;\r\n    }\r\n\r\n    function getImageCount(address owner) public view returns(uint256) {\r\n        return ownerToImages[owner].length;\r\n    }\r\n\r\n    function getImage(address owner, uint256 index) public view returns (\r\n        string memory description,\r\n        string memory title,\r\n        string memory memeHash\r\n    ) {\r\n        Image memory image = ownerToImages[owner][index];\r\n        return (\r\n            image.description,\r\n            image.title,\r\n            image.memeHash\r\n        );\r\n    }\r\n}",
  "sourcePath": "F:/Workspaces/Blockchain/ethereum_scaffold-master/src/contracts/ImageRegister.sol",
  "compiler": {
    "name": "solc",
    "version": "0.5.2+commit.1df8f40c.Emscripten.clang"
  },
  "schemaVersion": "3.0.6",
  "updatedAt": "2019-12-28T10:39:20.793Z",
  "devdoc": {
    "methods": {}
  },
  "userdoc": {
    "methods": {}
  }
}