{
  "contractName": "Meme",
  "abi": [
    {
      "constant": false,
      "inputs": [
        {
          "name": "_memeHash",
          "type": "string"
        }
      ],
      "name": "set",
      "outputs": [],
      "payable": false,
      "stateMutability": "nonpayable",
      "type": "function",
      "signature": "0x4ed3885e"
    },
    {
      "constant": true,
      "inputs": [],
      "name": "get",
      "outputs": [
        {
          "name": "",
          "type": "string"
        }
      ],
      "payable": false,
      "stateMutability": "view",
      "type": "function",
      "signature": "0x6d4ce63c"
    }
  ],
  "bytecode": "0x608060405234801561001057600080fd5b50610323806100206000396000f3fe608060405234801561001057600080fd5b5060043610610053576000357c0100000000000000000000000000000000000000000000000000000000900480634ed3885e146100585780636d4ce63c14610113575b600080fd5b6101116004803603602081101561006e57600080fd5b810190808035906020019064010000000081111561008b57600080fd5b82018360208201111561009d57600080fd5b803590602001918460018302840111640100000000831117156100bf57600080fd5b91908080601f016020809104026020016040519081016040528093929190818152602001838380828437600081840152601f19601f820116905080830192505050505050509192919290505050610196565b005b61011b6101b0565b6040518080602001828103825283818151815260200191508051906020019080838360005b8381101561015b578082015181840152602081019050610140565b50505050905090810190601f1680156101885780820380516001836020036101000a031916815260200191505b509250505060405180910390f35b80600090805190602001906101ac929190610252565b5050565b606060008054600181600116156101000203166002900480601f0160208091040260200160405190810160405280929190818152602001828054600181600116156101000203166002900480156102485780601f1061021d57610100808354040283529160200191610248565b820191906000526020600020905b81548152906001019060200180831161022b57829003601f168201915b5050505050905090565b828054600181600116156101000203166002900490600052602060002090601f016020900481019282601f1061029357805160ff19168380011785556102c1565b828001600101855582156102c1579182015b828111156102c05782518255916020019190600101906102a5565b5b5090506102ce91906102d2565b5090565b6102f491905b808211156102f05760008160009055506001016102d8565b5090565b9056fea165627a7a72305820ec48e4efdeea05278cb9df313f2d14719a6a90890312ca0f52d91af6d1fc71fb0029",
  "source": "pragma solidity ^0.5.0;\r\n\r\ncontract Meme {\r\n    string memeHash1;\r\n\r\n    function set(string memory _memeHash) public {\r\n        memeHash1 = _memeHash;\r\n    }\r\n\r\n    function get() public view returns (string memory) {\r\n        return memeHash1;\r\n    }\r\n}",
  "sourcePath": "F:/Workspaces/Blockchain/ethereum_scaffold-master/src/contracts/Meme.sol",
  "compiler": {
    "name": "solc",
    "version": "0.5.2+commit.1df8f40c.Emscripten.clang"
  },
  "schemaVersion": "3.0.6",
  "updatedAt": "2019-12-28T09:14:11.133Z",
  "devdoc": {
    "methods": {}
  },
  "userdoc": {
    "methods": {}
  }
}